:020000040800F2
:1000000018080020050200086102000861020008CB
:10001000610200086102000861020008000000009F
:100020000000000000000000000000006102000865
:10003000610200080000000061020008610200087F
:100040006102000861020008610200086102000804
:100050006102000861020008CD0500086102000885
:1000600061020008610200086102000861020008E4
:1000700061020008610200086102000861020008D4
:1000800061020008610200086102000861020008C4
:1000900061020008610200086102000861020008B4
:1000A00061020008610200086102000861020008A4
:1000B000E905000861020008610200086102000809
:1000C0006102000861020008610200086102000884
:1000D0006102000861020008610200086102000874
:1000E0006102000861020008610200086102000864
:1000F0006102000861020008610200086102000854
:100100006102000861020008610200086102000843
:100110006102000861020008610200086102000833
:100120006102000861020008610200086102000823
:100130006102000861020008610200086102000813
:100140006102000861020008610200086102000803
:1001500061020008610200086102000861020008F3
:1001600061020008610200086102000861020008E3
:1001700061020008610200086102000861020008D3
:10018000610200086102000890B484B000AF02462A
:100190000B46FA71BB710023FB60BB7903F00303CC
:1001A0009B000F2202FA03F3FB60154BBA79920809
:1001B000D2B21349B8798008C0B2023051F8200099
:1001C000F968C9430140023243F822100C4BBA7956
:1001D0009208D2B20A49B8798008C0B2023051F808
:1001E0002000FC79B97901F00301890004FA01F1DA
:1001F0000143023243F822101037BD4690BC7047CD
:100200000038014080B582B000AF104B7B60104BCE
:100210003B6007E03B681A1D3A607A68111D7960FF
:1002200012681A603A680B4B9A42F3D30A480B499A
:100230004FF000028842B8BF40F8042BFFF6FAAF37
:1002400000F030F80837BD4680BD00BF0811000837
:1002500000000020100000201000002014000020EA
:1002600080B400AFFEE700BF80B500AF022000F011
:1002700075F9032000F072F980BD00BF80B500AFB2
:10028000074B1B885A1C91B2054A1180B3F57A7F3F
:1002900005D9002000F062F9014B00221A8080BDD0
:1002A0001000002080B582B000AF00F0BDF900233F
:1002B0007B6000233B60642000F016EF7B68DBB2BC
:1002C0000120194600F062F97B68DBB20220194672
:1002D00000F05CF97B68DBB20320194600F056F9A8
:1002E0007B68DBB20020194600F050F97B68632B75
:1002F00001DD01233B607B68002B01DC00233B60B8
:100300003B68002B03D07B6801337B60D3E77B68BD
:10031000013B7B60CFE700BF80B483B000AF786063
:100320000B46FB70FB78002B06D0094B084A116B7B
:100330007A680A431A6306E0054B054A116B7A682E
:10034000D2430A401A630C37BD465DF8047B704700
:100350000038024080B483B000AF78600B46FB7079
:10036000FB78002B06D0094B084A116C7A680A43C7
:100370001A6406E0054B054A116C7A68D2430A40BC
:100380001A640C37BD465DF8047B704700380240A4
:1003900080B487B000AF7860396000237B610023B0
:1003A0003B610023FB6000237B6176E07B690122D7
:1003B00002FA03F33B613B681A683B691340FB6038
:1003C000FA683B699A4265D17B681A687B695B0071
:1003D000032101FA03F3DB431A407B681A607B6850
:1003E0001A683B681B7919467B695B0001FA03F3C5
:1003F0001A437B681A603B681B79012B03D03B686A
:100400001B79022B2ED17B689A687B695B000321E4
:1004100001FA03F3DB431A407B689A607B689A68B1
:100420003B685B7919467B695B0001FA03F31A4369
:100430007B689A607B685A687B699BB2012101FAEC
:1004400003F3DB431A407B685A607B685A683B6859
:100450009B7919467B699BB201FA03F39BB21A435D
:100460007B685A607B68DA687B699BB25B0003211A
:1004700001FA03F3DB431A407B68DA607B68DA68D1
:100480003B68DB7919467B695B0001FA03F31A4389
:100490007B68DA607B6901337B617B690F2B85D9CF
:1004A0001C37BD465DF8047B704700BF80B483B045
:1004B00000AF78600B467B807B685A697B885A4026
:1004C0007B685A610C37BD465DF8047B704700BFFE
:1004D00080B485B000AF786013460A467A807B709E
:1004E0000023FB600023BB607A787B8803F007035E
:1004F0009B0002FA03F3FB607B88DB089BB21A4681
:100500007B88DB089BB219467B68083153F82110C1
:100510007B8803F007039B000F2000FA03F3DB4303
:1005200019407B68083243F822107B88DB089BB2B5
:100530001A467B68083253F82220FB681343BB60DD
:100540007B88DB089BB21A467B680832B96843F89F
:1005500022101437BD465DF8047B704780B582B029
:1005600000AF0346FB71FA79064B53F82220F97964
:10057000054B33F8113010461946FFF797FF08373F
:10058000BD4680BD00000020F010000880B483B09C
:1005900000AF02460B46FA71BB71FA79094B53F86A
:1005A0002220BB794FF47A7101FB03F3064981FBEA
:1005B00003014911DB17CB1A13600C37BD465DF8F8
:1005C000047B7047F81000081F85EB5180B500AF21
:1005D000012000F09BF90346002B04D0012000F01D
:1005E00087F9FFF741FE80BD80B500AF4FF0804036
:1005F000012100F03DFD0346002B12D04FF080405A
:10060000012100F05FFDFFF739FE064B1B889BB20E
:10061000002B06D0034B1B889BB2013B9AB2014BC7
:100620001A8080BD1200002080B500AF00F070F885
:1006300000F004F800F03CF880BD00BF80B586B043
:1006400000AF01200121FFF767FE01233B6100237A
:100650003B7502237B750023BB750223FB7507F1F5
:10066000100312481946FFF793FE00200021FFF700
:100670008BFD01237B6000233B7208237B720123E7
:10068000BB723B1D184600F0C5F806233B730123DF
:100690007B730123BB730123FB7307F10C03184623
:1006A00000F058F91837BD4680BD00BF0000024079
:1006B00080B584B000AF1C233B7000237B70012306
:1006C000BB700123FB703B46184600F043F9012044
:1006D0000121FFF73FFE4FF47A73BB600F23BB800D
:1006E0000023BB810023FB803B1D4FF08040194657
:1006F00000F08EF94FF080400121012200F094FCBF
:100700004FF08040012100F00DFA1037BD4680BD4A
:1007100080B58AB000AF0023FB830023BB8442F284
:1007200010733B620F23BB8307F11C033748194644
:1007300000F06EF902233B764FF470437B61022395
:100740007B760123FB760023BB7607F11403304848
:100750001946FFF71DFE2E484FF400410222FFF715
:10076000B7FE2B484FF480410222FFF7B1FE284824
:100770004FF400510222FFF7ABFE25484FF48051A1
:100780000222FFF7A5FE60233B8001237B8000232C
:10079000BB600023BB813B461C48194600F0E2F9D0
:1007A0001A48082100F0CCFB01237B800023BB60AA
:1007B0003B461648194600F04FFA1448082100F04D
:1007C000DBFB01237B800023BB603B460F481946BF
:1007D00000F0CAFA0D48082100F0ECFB01237B80F1
:1007E0000023BB603B460948194600F043FB07481D
:1007F000082100F0FBFB0548012100F073F90348D4
:10080000012100F08FF92837BD4680BD0008004067
:10081000000C024080B485B000AF78600023FB601C
:10082000324BFB607B689B79002B4DD02F4B2F4ABE
:1008300011687A681268D2430A401A602B4B2B4A1F
:1008400051687A681268D2430A405A607B681B7903
:10085000FA681344FB60FB68FA6811687A681268EA
:100860000A431A60214B214A91687A681268D24380
:100870000A409A601D4B1D4AD1687A681268D243BB
:100880000A40DA607B685B79102B0ED1174B174A50
:1008900091687A6812680A439A60144B134AD168C7
:1008A0007A6812680A43DA601BE0104BFB607B68D1
:1008B0005B79FA681344FB60FB68FA6811687A6830
:1008C00012680A431A600CE07B681B79FA681344CB
:1008D000FB60FB68FA6811687A681268D2430A40C4
:1008E0001A601437BD465DF8047B7047003C014038
:1008F00080B483B000AF7860034B7A685A610C37DC
:10090000BD465DF8047B7047003C014080B485B073
:1009100000AF78600023FB730023BB600C4B1A68A8
:100920007B681340BB600A4B5A697B681340002BFD
:1009300005D0BB68002B02D00123FB7301E000232C
:10094000FB73FB7B18461437BD465DF8047B70478C
:10095000003C014080B485B000AF78600023FB7399
:100960000023BB730F237B737B68DB78002B37D0AE
:10097000254BDB68DB4303F4E0631B0AFB73FB7B63
:10098000C3F10403BB737A7BFB7B42FA03F37B73F3
:100990007B685B781A46BB7B02FA03F3FB737B68C8
:1009A0009A787B7B1340DAB2FB7B1343FB73FB7BB0
:1009B0001B01FB73154A7B681B781344FA7B83F891
:1009C0000023124B7A6812785209D2B279680978FA
:1009D00001F01F01012000FA01F143F822100EE09E
:1009E0000A4B7A6812785209D2B27968097801F014
:1009F0001F01012000FA01F1203243F822101437C0
:100A0000BD465DF8047B704700ED00E000E100E0CA
:100A100080B485B000AF786039600023FB817B68CB
:100A20001B88FB817A68284B9A4213D07A68274B3F
:100A30009A420FD07B68B3F1804F0BD07A68244B79
:100A40009A4207D07A68234B9A4203D07A68224BA5
:100A50009A4208D1FB8923F07003FB813B685A88D6
:100A6000FB891343FB817A681C4B9A420CD07A684D
:100A70001B4B9A4208D0FB8923F44073FB813B68EF
:100A80001A89FB891343FB817B68FA891A803B68CA
:100A90005A687B68DA623B681A887B681A857A68CC
:100AA000094B9A4203D07A68084B9A4204D13B68BA
:100AB0009B7A1A467B681A867B6801229A821437D1
:100AC000BD465DF8047B7047000001400004014012
:100AD0000004004000080040000C004000100040EE
:100AE0000014004080B483B000AF78600B46FB7008
:100AF000FB78002B08D07B681B889BB243F08003F7
:100B00009AB27B681A8007E07B681B889BB223F04F
:100B100080039AB27B681A800C37BD465DF8047B6F
:100B2000704700BF80B483B000AF78600B46FB70A5
:100B3000FB78002B08D07B681B889BB243F0010335
:100B40009AB27B681A8007E07B681B889BB223F00F
:100B500001039AB27B681A800C37BD465DF8047BAE
:100B6000704700BF80B485B000AF78603960002363
:100B70007B810023FB810023BB817B681B8C9BB2A4
:100B800023F001039AB27B681A847B681B8CFB817B
:100B90007B689B88BB817B681B8B7B817B8923F077
:100BA00070037B817B8923F003037B813B681A8878
:100BB0007B8913437B81FB8923F00203FB813B6824
:100BC0009A89FB891343FB813B685A88FB8913434D
:100BD000FB817A681E4B9A4203D07A681D4B9A4279
:100BE00023D1FB8923F00803FB813B68DA89FB8969
:100BF0001343FB81FB8923F00403FB813B689A8844
:100C0000FB891343FB81BB8923F48073BB81BB89C0
:100C100023F40073BB813B681A8ABB891343BB81F1
:100C20003B685A8ABB891343BB817B68BA899A8027
:100C30007B687A891A833B689A687B685A637B6809
:100C4000FA891A841437BD465DF8047B704700BFEB
:100C5000000001400004014080B485B000AF78601E
:100C6000396000237B810023FB810023BB817B68EB
:100C70001B8C9BB223F010039AB27B681A847B68AA
:100C80001B8CFB817B689B88BB817B681B8B7B817A
:100C90007B8923F4E0437B817B8923F440737B8150
:100CA0003B681B881B029AB27B8913437B81FB89BB
:100CB00023F02003FB813B689B891B019AB2FB89CF
:100CC0001343FB813B685B881B019AB2FB8913438A
:100CD000FB817A68224B9A4203D07A68214B9A4270
:100CE0002BD1FB8923F08003FB813B68DB891B014F
:100CF0009AB2FB891343FB81FB8923F04003FB81FC
:100D00003B689B881B019AB2FB891343FB81BB891B
:100D100023F48063BB81BB8923F40063BB813B6800
:100D20001B8A9B009AB2BB891343BB813B685B8AD9
:100D30009B009AB2BB891343BB817B68BA899A80B6
:100D40007B687A891A833B689A687B689A637B68B8
:100D5000FA891A841437BD465DF8047B704700BFDA
:100D6000000001400004014080B485B000AF78600D
:100D7000396000237B810023FB810023BB817B68DA
:100D80001B8C9BB223F480739AB27B681A847B68B5
:100D90001B8CFB817B689B88BB817B689B8B7B81E9
:100DA0007B8923F070037B817B8923F003037B81A4
:100DB0003B681A887B8913437B81FB8923F400738A
:100DC000FB813B689B891B029AB2FB891343FB8121
:100DD0003B685B881B029AB2FB891343FB817A68EC
:100DE000224B9A4203D07A68214B9A422BD1FB893D
:100DF00023F40063FB813B68DB891B029AB2FB8909
:100E00001343FB81FB8923F48063FB813B689B8850
:100E10001B029AB2FB891343FB81BB8923F48053E5
:100E2000BB81BB8923F40053BB813B681B8A1B0138
:100E30009AB2BB891343BB813B685B8A1B019AB2A0
:100E4000BB891343BB817B68BA899A807B687A89A6
:100E50009A833B689A687B68DA637B68FA891A84AC
:100E60001437BD465DF8047B704700BF00000140A9
:100E70000004014080B485B000AF78603960002381
:100E8000BB8100237B810023FB817B681B8C9BB291
:100E900023F480539AB27B681A847B681B8C7B8115
:100EA0007B689B88FB817B689B8BBB81BB8923F420
:100EB000E043BB81BB8923F44073BB813B681B8843
:100EC0001B029AB2BB891343BB817B8923F4005375
:100ED0007B813B689B891B039AB27B8913437B818F
:100EE0003B685B881B039AB27B8913437B817A68DA
:100EF000114B9A4203D07A68104B9A420AD1FB896F
:100F000023F48043FB813B681B8A9B019AB2FB89D7
:100F10001343FB817B68FA899A807B68BA899A833C
:100F20003B689A687B681A647B687A891A841437EC
:100F3000BD465DF8047B704700000140000401409D
:100F400080B485B000AF78600B467B800023FB81C6
:100F50007B681B8BFB81FB8923F00803FB81FA89EB
:100F60007B881343FB817B68FA891A831437BD465B
:100F70005DF8047B704700BF80B485B000AF786037
:100F80000B467B800023FB817B681B8BFB81FB89ED
:100F900023F40063FB817B881B029AB2FB89134315
:100FA000FB817B68FA891A831437BD465DF8047BA0
:100FB000704700BF80B485B000AF78600B467B807F
:100FC0000023FB817B689B8BFB81FB8923F008035B
:100FD000FB81FA897B881343FB817B68FA899A83BA
:100FE0001437BD465DF8047B704700BF80B485B000
:100FF00000AF78600B467B800023FB817B689B8B76
:10100000FB81FB8923F40063FB817B881B029AB27E
:10101000FB891343FB817B68FA899A831437BD46A9
:101020005DF8047B704700BF80B483B000AF786088
:1010300013460A467A807B707B78002B08D07B6849
:101040009B899AB27B8813439AB27B689A8109E0A4
:101050007B689B899AB27B88DB439BB213409AB230
:101060007B689A810C37BD465DF8047B704700BFF2
:1010700080B485B000AF78600B467B800023FB73A3
:101080000023BB8100237B817B681B8A9AB27B880B
:101090001340BB817B689B899AB27B8813407B811C
:1010A000BB89002B05D07B89002B02D00123FB7369
:1010B00001E00023FB73FB7B18461437BD465DF847
:1010C000047B704780B483B000AF78600B467B80B0
:1010D0007B88DB439AB27B681A820C37BD465DF889
:1010E000047B70470000000004F01FE512000020A0
:1010F0000010004000200080340800403C08004000
:081100003808004040080040DF
:10110800000C0240000C0240000C0240000C02409F
:0400000508000000EF
:00000001FF
